:020000009090DE
:020001009090DD
:020002009090DC
:020003009090DB
:020004009090DA
:020005009090D9
:020006009090D8
:020007009090D7
:020008009090D6
:020009009090D5
:02000A009090D4
:02000B009090D3
:02000C009090D2
:02000D009090D1
:02000E009090D0
:02000F009090CF
:020010009090CE
:020011009090CD
:020012009090CC
:020013009090CB
:020014009090CA
:020015009090C9
:020016009090C8
:020017009090C7
:020018009090C6
:020019009090C5
:02001A009090C4
:02001B009090C3
:02001C009090C2
:02001D009090C1
:02001E009090C0
:02001F009090BF
:020020009090BE
:020021009090BD
:020022009090BC
:020023009090BB
:020024009090BA
:020025009090B9
:020026009090B8
:020027009090B7
:020028009090B6
:020029009090B5
:02002A009090B4
:02002B009090B3
:02002C009090B2
:02002D009090B1
:02002E009090B0
:02002F009090AF
:020030009090AE
:020031009090AD
:020032009090AC
:020033009090AB
:020034009090AA
:020035009090A9
:020036009090A8
:020037009090A7
:020038009090A6
:020039009090A5
:02003A009090A4
:02003B009090A3
:02003C009090A2
:02003D009090A1
:02003E009090A0
:02003F0090909F
:0200400090909E
:0200410090909D
:0200420090909C
:0200430090909B
:0200440090909A
:02004500909099
:02004600909098
:02004700909097
:02004800909096
:02004900909095
:02004A00909094
:02004B00909093
:02004C00909092
:02004D00909091
:02004E00909090
:02004F0090908F
:0200500090908E
:0200510090908D
:0200520090908C
:0200530090908B
:0200540090908A
:02005500909089
:02005600909088
:02005700909087
:02005800909086
:02005900909085
:02005A00909084
:02005B00909083
:02005C00909082
:02005D00909081
:02005E00909080
:02005F0090907F
:0200600090907E
:0200610090907D
:0200620090907C
:0200630090907B
:0200640090907A
:02006500909079
:02006600909078
:02006700909077
:02006800909076
:02006900909075
:02006A00909074
:02006B00909073
:02006C00909072
:02006D00909071
:02006E00909070
:02006F0090906F
:0200700090906E
:0200710090906D
:0200720090906C
:0200730090906B
:0200740090906A
:02007500909069
:02007600909068
:02007700909067
:02007800909066
:02007900909065
:02007A00909064
:02007B00909063
:02007C00909062
:02007D00909061
:02007E00909060
:02007F0090905F
:0200800090905E
:0200810090905D
:0200820090905C
:0200830090905B
:0200840090905A
:02008500909059
:02008600909058
:02008700909057
:02008800909056
:02008900909055
:02008A00909054
:02008B00909053
:02008C00909052
:02008D00909051
:02008E00909050
:02008F0090904F
:0200900090904E
:0200910090904D
:0200920090904C
:0200930090904B
:0200940090904A
:02009500909049
:02009600909048
:02009700909047
:02009800909046
:02009900909045
:02009A00909044
:02009B00909043
:02009C00909042
:02009D00909041
:02009E00909040
:02009F0090903F
:0200A00090903E
:0200A10090903D
:0200A20090903C
:0200A30090903B
:0200A40090903A
:0200A500909039
:0200A600909038
:0200A700909037
:0200A800909036
:0200A900909035
:0200AA00909034
:0200AB00909033
:0200AC00909032
:0200AD00909031
:0200AE00909030
:0200AF0090902F
:0200B00090902E
:0200B10090902D
:0200B20090902C
:0200B30090902B
:0200B40090902A
:0200B500909029
:0200B600909028
:0200B700909027
:0200B800909026
:0200B900909025
:0200BA00909024
:0200BB00909023
:0200BC00909022
:0200BD00909021
:0200BE00909020
:0200BF0090901F
:0200C00090901E
:0200C10090901D
:0200C20090901C
:0200C30090901B
:0200C40090901A
:0200C500909019
:0200C600909018
:0200C700909017
:0200C800909016
:0200C900909015
:0200CA00909014
:0200CB00909013
:0200CC00909012
:0200CD00909011
:0200CE00909010
:0200CF0090900F
:0200D00090900E
:0200D10090900D
:0200D20090900C
:0200D30090900B
:0200D40090900A
:0200D500909009
:0200D600909008
:0200D700909007
:0200D800909006
:0200D900909005
:0200DA00909004
:0200DB00909003
:0200DC00909002
:0200DD00909001
:0200DE00909000
:0200DF009090FF
:0200E0009090FE
:0200E1009090FD
:0200E2009090FC
:0200E3009090FB
:0200E4009090FA
:0200E5009090F9
:0200E6009090F8
:0200E7009090F7
:0200E8009090F6
:0200E9009090F5
:0200EA009090F4
:0200EB009090F3
:0200EC009090F2
:0200ED009090F1
:0200EE009090F0
:0200EF009090EF
:0200F0009090EE
:0200F1009090ED
:0200F2009090EC
:0200F3009090EB
:0200F4009090EA
:0200F5009090E9
:0200F6009090E8
:0200F7009090E7
:0200F8009090E6
:0200F9009090E5
:0200FA009090E4
:0200FB009090E3
:0200FC009090E2
:0200FD009090E1
:0200FE009090E0
:0200FF009090DF
:020100009090DD
:020101009090DC
:020102009090DB
:020103009090DA
:020104009090D9
:020105009090D8
:020106009090D7
:020107009090D6
:020108009090D5
:020109009090D4
:02010A009090D3
:02010B009090D2
:02010C009090D1
:02010D009090D0
:02010E009090CF
:02010F009090CE
:020110009090CD
:020111009090CC
:020112009090CB
:020113009090CA
:020114009090C9
:020115009090C8
:020116009090C7
:020117009090C6
:020118009090C5
:020119009090C4
:02011A009090C3
:02011B009090C2
:02011C009090C1
:02011D009090C0
:02011E009090BF
:02011F009090BE
:020120009090BD
:020121009090BC
:020122009090BB
:020123009090BA
:020124009090B9
:020125009090B8
:020126009090B7
:020127009090B6
:020128009090B5
:020129009090B4
:02012A009090B3
:02012B009090B2
:02012C009090B1
:02012D009090B0
:02012E009090AF
:02012F009090AE
:020130009090AD
:020131009090AC
:020132009090AB
:020133009090AA
:020134009090A9
:020135009090A8
:020136009090A7
:020137009090A6
:020138009090A5
:020139009090A4
:02013A009090A3
:02013B009090A2
:02013C009090A1
:02013D009090A0
:02013E0090909F
:02013F0090909E
:0201400090909D
:0201410090909C
:0201420090909B
:0201430090909A
:02014400909099
:02014500909098
:02014600909097
:02014700909096
:02014800909095
:02014900909094
:02014A00909093
:02014B00909092
:02014C00909091
:02014D00909090
:02014E0090908F
:02014F0090908E
:0201500090908D
:0201510090908C
:0201520090908B
:0201530090908A
:02015400909089
:02015500909088
:02015600909087
:02015700909086
:02015800909085
:02015900909084
:02015A00909083
:02015B00909082
:02015C00909081
:02015D00909080
:02015E0090907F
:02015F0090907E
:0201600090907D
:0201610090907C
:0201620090907B
:0201630090907A
:02016400909079
:02016500909078
:02016600909077
:02016700909076
:02016800909075
:02016900909074
:02016A00909073
:02016B00909072
:02016C00909071
:02016D00909070
:02016E0090906F
:02016F0090906E
:0201700090906D
:0201710090906C
:0201720090906B
:0201730090906A
:02017400909069
:02017500909068
:02017600909067
:02017700909066
:02017800909065
:02017900909064
:02017A00909063
:02017B00909062
:02017C00909061
:02017D00909060
:02017E0090905F
:02017F0090905E
:0201800090905D
:0201810090905C
:0201820090905B
:0201830090905A
:02018400909059
:02018500909058
:02018600909057
:02018700909056
:02018800909055
:02018900909054
:02018A00909053
:02018B00909052
:02018C00909051
:02018D00909050
:02018E0090904F
:02018F0090904E
:0201900090904D
:0201910090904C
:0201920090904B
:0201930090904A
:02019400909049
:02019500909048
:02019600909047
:02019700909046
:02019800909045
:02019900909044
:02019A00909043
:02019B00909042
:02019C00909041
:02019D00909040
:02019E0090903F
:02019F0090903E
:0201A00090903D
:0201A10090903C
:0201A20090903B
:0201A30090903A
:0201A400909039
:0201A500909038
:0201A600909037
:0201A700909036
:0201A800909035
:0201A900909034
:0201AA00909033
:0201AB00909032
:0201AC00909031
:0201AD00909030
:0201AE0090902F
:0201AF0090902E
:0201B00090902D
:0201B10090902C
:0201B20090902B
:0201B30090902A
:0201B400909029
:0201B500909028
:0201B600909027
:0201B700909026
:0201B800909025
:0201B900909024
:0201BA00909023
:0201BB00909022
:0201BC00909021
:0201BD00909020
:0201BE0090901F
:0201BF0090901E
:0201C00090901D
:0201C10090901C
:0201C20090901B
:0201C30090901A
:0201C400909019
:0201C500909018
:0201C600909017
:0201C700909016
:0201C800909015
:0201C900909014
:0201CA00909013
:0201CB00909012
:0201CC00909011
:0201CD00909010
:0201CE0090900F
:0201CF0090900E
:0201D00090900D
:0201D10090900C
:0201D20090900B
:0201D30090900A
:0201D400909009
:0201D500909008
:0201D600909007
:0201D700909006
:0201D800909005
:0201D900909004
:0201DA00909003
:0201DB00909002
:0201DC00909001
:0201DD00909000
:0201DE009090FF
:0201DF009090FE
:0201E0009090FD
:0201E1009090FC
:0201E2009090FB
:0201E3009090FA
:0201E4009090F9
:0201E5009090F8
:0201E6009090F7
:0201E7009090F6
:0201E8009090F5
:0201E9009090F4
:0201EA009090F3
:0201EB009090F2
:0201EC009090F1
:0201ED009090F0
:0201EE009090EF
:0201EF009090EE
:0201F0009090ED
:0201F1009090EC
:0201F2009090EB
:0201F3009090EA
:0201F4009090E9
:0201F5009090E8
:0201F6009090E7
:0201F7009090E6
:0201F8009090E5
:0201F9009090E4
:0201FA009090E3
:0201FB009090E2
:0201FC009090E1
:0201FD009090E0
:0201FE009090DF
:0201FF009090DE
:00000001FF
